:020000041000EA
:1000000000B5324B212058609868022188439860DF
:10001000D860186158612E4B002199600221596106
:100020000121F02299502B49196001219960352056
:1000300000F044F80222904214D00621196600F024
:1000400034F8196E01211966002018661A6600F04E
:100050002CF8196E196E196E052000F02FF8012189
:100060000842F9D1002199601B49196000215960AB
:100070001A491B48016001219960EB211966A021F2
:10008000196600F012F800219960164914480160C1
:100090000121996001BC002800D000471248134993
:1000A000086003C880F30888084703B5996A0420EC
:1000B0000142FBD001200142F8D103BD02B5186610
:1000C0001866FFF7F2FF186E186E02BD00000240BE
:1000D000000000180000070000035F00212200005C
:1000E000F4000018222000A00001001008ED00E03C
:1000F00000000000000000000000000074B24E7A12
:1001000000200420F7010010C3010010C5010010F9
:10011000C1010010C1010010C1010010C101001097
:10012000C1010010C1010010C1010010C701001081
:10013000C1010010C1010010C9010010CB01001065
:10014000CD010010CD010010CD010010CD01001037
:10015000CD010010CD010010CD010010CD01001027
:10016000CD010010CD010010CD010010CD01001017
:10017000CD010010CD010010CD010010CD01001007
:10018000CD010010CD010010CD010010CD010010F7
:10019000CD010010CD010010CD010010CD010010E7
:1001A000CD010010CD010010CD010010CD010010D7
:1001B000CD010010CD010010CD010010CD010010C7
:1001C00000BE00BE00BE00BE00BE00BEEFF3058054
:1001D000103800BEF2EB8871408A0210708A02105B
:1001E0003802001090A31AE71E481F49086006C88D
:1001F00081F3088810471D480068002801D019487D
:10020000F3E70DA40ECC002902D000F012F8F9E7B4
:100210001749184A002000E001C19142FCD116495B
:100220008847164988471649884700BEFDE701C937
:1002300001C29A42FBD37047708A0210D00000209E
:10024000C81D002068A70210000004200000042040
:1002500068A7021000100420001004200000000015
:10026000704700000000000008ED00E0000000D032
:10027000C81D0020C4300020A5710010F50A001030
:100280009D710010F8B5C04606480749091A8B1041
:10029000C90FC91810B5491003D0044B002B00D06A
:1002A000984710BDC81D0020C81D00200000000098
:1002B000054B10B5002B03D00449054800E000BFF2
:1002C000FFF7E2FF10BDC0460000000040300020F4
:1002D00044DE01100022014B1A707047B730002035
:1002E00070B5064C064D2600FC36216828000C34FB
:1002F00007F00EFAB442F8D170BDC0466404021093
:1003000048DE01100122084B70B51A70002503F079
:10031000B7FE064C064A001969410B1E02DA01209D
:10032000044B404209C270BDB730002040420F006C
:10033000C81D0020FFFFFF7F70B50020284917F07F
:10034000B3FF061E41D0002409E0200000F0D8FCD5
:100350003100006819F07CFE002809D0013400F05B
:10036000CDFC8442F1D331001E4807F0D1F970BDB5
:10037000200000F0C5FC0022310000200EF01EFC21
:10038000041E01D018E0013400F0B8FC844221D2F0
:10039000200000F0B5FC3100006819F059FE051E80
:1003A000F1D1200000F0ACFCA82301229B00C55431
:1003B000C3691343C361DAE715F06CFD0A4B010012
:1003C0002200180007F0A4F9D1E7002000F098FC03
:1003D0000668B8E7A82300229B001A70FFDEC0461B
:1003E000D4EA011050DE011074DE0110802230B515
:1003F000114C0100A54452000500684617F0FAFEB2
:100400008021684640AA490015F050FD041E03D122
:1004100089239B009D4430BD2900084807F078F9E6
:10042000200015F037FD064D020023002800054985
:1004300007F06EF9ECE7C046DCFDFFFF90DE01102F
:10044000C0DE0110B4DE011010B5024801F076FFE5
:1004500010BDC046D4DE011010B5044C200011F0D0
:1004600037F9200001F07CFD10BDC046D4DE01103C
:1004700010B5094C2000FFF7B9FF200011F028F952
:10048000200001F06DFD200001F058FF002007F072
:1004900025F80230EED010BDD4DE011010B5194C95
:1004A00019490020A54417F0FFFE011E26D00122A5
:1004B00040A80EF067FC041E16D1144C03E06946F8
:1004C000200007F025F98021684640AA490013F072
:1004D0008DFA0028F3D140A80FF092FD041E03D13D
:1004E000D8239B009D4410BD200015F0D3FC084B81
:1004F00001002200180007F00BF9F1E7054807F0AA
:1005000083F8EDE7A0FCFFFFD4EA0110F0DE011054
:1005100010FA0110DCDE011010B500200B4917F0B5
:10052000C3FE00280DD00FF0A7FD041E00D110BDA2
:1005300015F0B0FC064B01002200180007F0E8F8A7
:10054000F5E700F0DDFB0068EDE7C046D4EA0110F6
:10055000F4DE0110002010B5074917F0A5FE0300D6
:100560000020002B04D000220021180017F06EF9A3
:1005700001F014FB10BDC046D4EA011010B5A2B0C2
:100580008022002102A805F00DF9002016F07CF869
:1005900000900191684617F0C5FE04000300802119
:1005A000094A02A819F08AF902A807F02DF82300D9
:1005B000064A802102A819F081F902A9044807F02F
:1005C000A7F822B010BDC0460CDF011010DF0110EB
:1005D00014DF0110F0B5CE46474680B5284C83B0F5
:1005E0002100002017F060FE002841D016F0A8FA84
:1005F00021000500002017F057FE002838D016F023
:100600009FFA21000600002017F04EFE00282FD090
:1006100016F096FA21000700002017F045FE00288A
:1006200026D016F08DFA21008046002017F03CFEFF
:1006300000281DD016F084FA21008146002017F012
:1006400033FE002814D016F07BFA6B4600221A7194
:10065000FA22D200944642465A714A466744D871FB
:1006600068461F809E70DD709A7116F0D5F902E021
:10067000044806F0C9FF03B0C0BCB946B046F0BD9F
:10068000D4EA0110DCDE0110F0B54F464646D646EE
:10069000C0B5224F06003B78002B19D101333B70C7
:1006A000A8239B00984601230025994600F026FBCD
:1006B00085420BD2280000F023FB036904009E4210
:1006C0000BD0013500F01AFB8542F3D300233B70B9
:1006D000E0BCBA46B146A846F0BD4346C35C002B19
:1006E00008D14A46E36920001343E36115F030FA6C
:1006F0000135E7E70168002200200EF05FFA82462C
:10070000002802D14346E054EBE715F0C3FB044B4D
:1007100001005246180006F0FBFFE2E7B830002067
:1007200074DE011070B5124D0020290017F0BCFDD9
:10073000041E18D02900002017F0B6FD002812D0A2
:100740000021002217F082F829000600002017F08F
:10075000ABFD002807D016F0F3F9310002002000AD
:1007600001F03CFA70BD034806F04EFFFAE7C046C0
:10077000D4EA0110DCDE011010B50020054917F0A5
:1007800093FD002802D0FFF731FE10BD024806F0AD
:100790003BFFFAE7D4EA0110DCDE011010B50020BF
:1007A0000B4917F081FD00280DD010F091FF041EB9
:1007B00000D110BD15F06EFB064B010022001800A1
:1007C00006F0A6FFF5E7044806F01EFFF1E7C04675
:1007D000D4EA011028DF0110DCDE011010B5002082
:1007E0000B4917F061FD00280DD00FF063FC041ECB
:1007F00000D110BD15F04EFB064B01002200180081
:1008000006F086FFF5E7044806F0FEFEF1E7C04675
:10081000D4EA011028DF0110DCDE011070B50020E1
:10082000194917F041FD051E29D0002409E02000D8
:1008300000F066FA2900006819F00AFC002809D0C7
:10084000013400F05BFA8442F1D329000F4806F02E
:100850005FFF70BD200000F053FA802300220021CA
:100860002800DB0011F07AFA041EF2D015F012FB1A
:10087000074B01002200180006F04AFFE9E70020BC
:1008800000F03EFA0568D0E7D4EA011050DE01100E
:1008900028DF011030B50020224983B017F004FD95
:1008A000051E39D0002409E0200000F029FA2900B3
:1008B000006819F0CDFB00280CD0013400F01EFABE
:1008C0008442F1D3002329001748019306F020FF4A
:1008D00003B030BD200000F013FA383001906946B3
:1008E000280001AA10F0FAFB041E0CD1019B009A0B
:1008F0005989DB6A4A43023B5943520849080B486D
:1009000006F006FFE4E715F0C5FA094B01002200E6
:10091000180006F0FDFEDBE7002000F0F1F90568A5
:10092000C0E7C046D4EA011050DE01105CDF0110C0
:1009300040DF011070B50020264917F0B5FC051EF8
:100940003ED0002409E0200000F0DAF92900006818
:1009500019F07EFB002809D0013400F0CFF9844261
:10096000F1D329001C4806F0D3FE70BD200000F032
:10097000C7F90122290038300EF020F9041E01D0F9
:1009800015E0013400F0BAF984421ED2200000F0D4
:10099000B7F92900006819F05BFB0028F1D12000AD
:1009A00000F0AEF9A82301229B00C254DDE715F048
:1009B00071FA0A4B01002200180006F0A9FED4E7E4
:1009C000002000F09DF90568BBE7A82300229B00EA
:1009D0001A70FFDED4EA011050DE0110F4DE0110BF
:1009E000F0B5C646050000B5314CFF22A5440021F4
:1009F00018A804F0D7FE2B78002B06D1FF2118A8E9
:100A00000FF0DAFB18AD041E40D12900294806F08A
:100A10007FFE5822002102A804F0C4FE902258ACA8
:100A200000215200200004F0BDFE2A002100224BCC
:100A300002A810F091FA051E31D1204B204D9846A6
:100A4000204EA37E002B18D0237B2F00DA0603D480
:100A50003700DB0700D4474622686368BD214900A0
:100A60000092019369443A00174806F051FE2100B4
:100A700002A810F017F90028E3D002A810F094F8AB
:100A8000A0239B009D4480BCB846F0BD15F002FA3F
:100A90000E4B01002200180006F03AFEF0E715F0B8
:100AA000F9F90B4B01002A00180006F031FEE7E7C8
:100AB00080FDFFFFCCDF011030EE0110A0DF011040
:100AC000A8FA011090DF011000E00110B0DF011062
:100AD000E4DF011010B50020044917F0E5FB002801
:100AE00002D0FFF77DFF10BD0148FAE7D4EA0110FC
:100AF0004CDE0110F0B5DE46454657464E46E0B5A1
:100B000087B006F0E3FC15F003FE15F0FDFF6E481C
:100B100006F0FEFD6D4B00241800039306F0F8FD6F
:100B200006F0C0FC6A4D00F0E9F8A0420AD92000A6
:100B300000F0E6F8037B002B5AD1013400F0DEF818
:100B4000A042F4D8634B644C0193644B644E04930D
:100B5000644B654D9A46654B9946654B05938023DA
:100B60001B0698462378002B25D1002006F0B6FC02
:100B70000700831CF6D016F075FE002840D138001F
:100B800016F078FE00283BD10D2F4CD0082F00D155
:100B900086E07F2FE6D17F2006F0ECFC06F082FC99
:100BA0002B68002BDED000220199013B2B60CA5438
:100BB0002378002BD9D003F063FA32687368121AD5
:100BC0008B41002BD1DA00F0B5F8002800D120705D
:100BD00000213268736847488018594102000B00B1
:100BE000414502D30122444B524232607360BCE75C
:100BF0002B0001220C21006902F03EFA01349DE72E
:100C0000380006F0B7FC06F04DFC0D2F10D0082F71
:100C1000C6D07F2FC4D02B68FE2BA3D8019AD754FF
:100C200001332B609EE70D3006F0A4FC06F03AFC81
:100C30000A2006F09FFC06F035FC8021019849004F
:100C400017F022FB002831D05146019817F02CFBF9
:100C5000002817D0A346029500274D46040003E064
:100C600001370C35152F27D02100286819F0F0F92D
:100C70000028F5D17B00DB199B004B445B685C4688
:100C8000029D9847802200230021520001982B608A
:100C900004F088FD039806F03BFD06F003FC61E7D5
:100CA000082006F067FC06F0FDFB79E7049806F0E3
:100CB0002FFD06F0F7FB55E7210005985C46029DE5
:100CC00006F026FDDEE7C04618E0011020E0011026
:100CD000890600106C220020B730002024E00110AB
:100CE000C81D0020D4EA0110682200205C04021014
:100CF00028E0011040420F00FFFFFF7F01207047F6
:100D0000012805D8AE239B005843024BC0187047FA
:100D10000020FCE7B012002001207047012805D810
:100D200003011818024B8000C01870470020FCE730
:100D300068150020F0B5C64600B5754C0020A544E6
:100D400015F0A2FC05AD02900391290002A817F04E
:100D5000F3FA704B0EAC1A6820000E929B88A380A9
:100D600010F0B6FC08239846030042469343DBB2DA
:100D70000600002B0ED015F08DF8674B01003200F5
:100D8000180006F0C5FC0020C6239B009D4480BCD3
:100D9000B846F0BD614A3D209446E9686B6901910F
:100DA00029695F4A01316344009168443B2106F0A0
:100DB0006FF9461D200010F08BFC42460300934360
:100DC000DBB20700002B08D015F064F8524B01008D
:100DD0003A00180006F09CFCD5E740212B00891B47
:100DE000504AA0192EAE18F069FD322221003000C1
:100DF0000DF0C8FF424603009343DBB20700002B0F
:100E000009D015F047F8484D02003B0021002800AA
:100E100006F07EFCB7E73000326973690FF082FBA1
:100E2000071E6BD1B36BF26B13435DD0002015F03E
:100E30002BFC02900391290002A817F07DFA802173
:100E400003003A4A200018F039FD8023384ADB01BC
:100E5000116807004B40E021C9010B4035490B6088
:100E60000421354B1960FC3113680B42FCD0802300
:100E70005068DB1B0004000C984604F0C3FB2F49AC
:100E800004F0B9FB2E4904F09CFB2E4904F09FFBB3
:100E9000011C2D4804F095FB04F0D6FB2B4DE719FF
:100EA000009001912A004146380006F0F1F8220036
:100EB0003000274912F0D0FF002811DB30000FF07E
:100EC0009FF804000120002C00D15DE7200014F001
:100ED000E1FF204B01002200180006F019FC52E748
:100EE0001D4806F091FB4EE730001C4912F0B4FF9C
:100EF00000289BDA1A4806F087FB44E714F0CAFF83
:100F0000184B01003A00180006F002FC3BE7C0460F
:100F1000E8FCFFFF4CE8011054E801106C070000EA
:100F20006CE801107CE8011084E80110D0E80110A1
:100F300000C0044000D0044000E004403333533A82
:100F40006ABC343F2D93E13A0000D84160EF0110B4
:100F5000F0DE0110E8E80110D8E80110A0E8011067
:100F6000C0E801102CFA0110F0B5DE4657464E4697
:100F70004546E0B5D74CD848A54406F045FBF322DA
:100F8000002107A804F00EFCF32107A80FF014F9C4
:100F9000041E00D04EE1D14806F0BAFBD04B84AC21
:100FA00003221900200003930DF0ECFE051E42D130
:100FB000CC4806F029FBCC4B99461B68986816F084
:100FC00033FDCA4B00269A46C94B44AF0293C94B26
:100FD0009B461EE00A22380006A916F085FB069BF8
:100FE0000500BB4212D01B78002B01D00A2B0DD17B
:100FF00043464246DB1720000FF094FA5946200082
:101000006A1C12F029FF20000EF09EFE01360A2E07
:101010007ED00A223100504606F07AFBA36B2200F4
:101020000A213800984612F0E1FC0028D2D102983B
:1010300006F0EAFACEE7B04B18009A4606F0E4FA5A
:10104000A94B99461B68986816F0EEFC042D00D059
:1010500020E1AA4806F05CFB4B461B68986816F036
:10106000E3FC0B22200003990DF08CFE8046002843
:1010700000D022E19B4806F0C7FA4B461B680025CA
:10108000986816F0D1FC9E4B9E4F9B46994E02E00D
:1010900001350A2D1ED00A222900380006F038FB3F
:1010A0004B461B68986816F0BFFC2A0031002000F0
:1010B00012F0D2FE0028EBDA504606F0A5FA4046C0
:1010C00014F0E8FE013501004246584606F020FBC8
:1010D0000A2DE0D10A220A218B4806F019FB4B4663
:1010E0001B68986816F0A0FC884806F011FB0022E7
:1010F000002320000FF016FA051E00D024E17948E5
:1011000006F082FA4B461B68986816F08DFC58E78B
:101110000A220A217E4806F0FBFA4B461B689868B3
:1011200016F082FC7B4806F0F3FA20000EF068FF10
:10113000051E00D087E06B4806F066FA4B461B6838
:10114000986816F071FC744E3000FFF749FC734844
:101150000EF0B0FF051E00D0A6E03000FFF740FC07
:10116000FF220021380004F01DFB039B6C4AFF2185
:101170000093380007AB05F08BFF3900694806F093
:10118000C7FA0122390020000DF0FCFD051E67D1D1
:10119000544806F039FA4B461B68986816F044FC30
:1011A000614806F031FAA26B23699A4200D1D8E077
:1011B00002AB9C465D4B0F269846664401223100E7
:1011C000200006AB0EF02CFA051E27D014F062FEAC
:1011D0002A000100404606F09BFAA26B23699A425E
:1011E000ECD1E26B63699A42E8D13900504806F0CD
:1011F0008FFA20000EF004FF041E3ED1394806F09D
:1012000003FA4B461B68986816F00EFC494B9D4448
:10121000F0BCBB46B246A946A046F0BD307806F009
:10122000A9F9A26B23699A42C8D1E26B63699A4219
:10123000C4D1DAE714F02EFE3F4B01002200180063
:1012400006F066FAE2E72C4806F0DEF9280014F012
:1012500021FE3A4B01002A00180006F059FA6DE70A
:10126000254806F0D1F9280014F014FE344B010093
:101270002A00180006F04CFA8DE71F4806F0C4F962
:10128000200014F007FE2D4B01002200180006F08C
:101290003FFAB6E7280014F0FDFD294B01002A00B3
:1012A000180006F035FAB1E714F0F4FD254B010003
:1012B0002A00180006F02CFA4FE7504606F0A4F971
:1012C000404614F0E7FD1E4B01004246180006F0B0
:1012D0001FFAD2E68CFBFFFF00E9011010E90110B4
:1012E0002CE9011040E90110A41A0020E4E90110E2
:1012F00008EA01108CE9011038E9011044E90110F5
:1013000094E901106CE90110B0E90110D0E9011075
:1013100024EA01104CEA01104CDE011068EA0110C9
:1013200084EA01108CEA0110A0EA0110ACEA011075
:10133000C4EA011074040000B0DF0110E8E80110F5
:1013400010FA01106CEA0110504606F05DF9280011
:1013500014F0A0FD064B01002A00180006F0D8F991
:10136000D0E6E26B63699A4200D021E73DE7C046D0
:101370002CFA011010B5002809D10C4A10680C494C
:10138000C307DB170B4040084340136010BD202209
:1013900001240749230003405B420B404008013A07
:1013A0005840002AF6D1014AE9E7C0463030002013
:1013B00003002080F0B5DE4657464E46454681463E
:1013C000E0B593B008910A9300930D0092461C007B
:1013D000E24813000A00494606F09AF982239B006E
:1013E0009C4200D255E3002D00D1B5E104230393C4
:1013F000033B0493DA4B0C93DA4B0D93DA4B98468C
:10140000DA4B0E93DA4B0F93039B089A04990C98CE
:10141000DC1E06F07DF949460D9806F079F948463C
:1014200014F090FC01231D000540034200D03FE36F
:10143000404606F0E9F80E9806F0E6F8494610AA8C
:101440000F9806F065F90121484610AA109514F08E
:1014500003FD051E00D030E3404606F0D5F8109A93
:101460007F2A00D838E34946C24806F051F9C248FD
:1014700006F0CAF8494611AAC04806F049F9032106
:10148000484611AA119514F0E7FC002800D099E114
:10149000404606F0B9F81199B94806F039F9B9484B
:1014A00006F0B2F8B84B20259B461C600020013D99
:1014B000FFF760FF002DF9D15B46802551460126DC
:1014C0001A68B248D307DB1703405208AD005340F7
:1014D000554432001A40524202405B0853400B70A0
:1014E00001318D42F5D15A461360A94B524618007E
:1014F00049460993002306F00BF9002200235146C8
:101500004846009614F06EFC002800D0E9E2404600
:1015100006F07AF89F4B49461800059306F0F8F854
:1015200000220021484614F097FC002800D0C9E2B0
:10153000404606F069F8802200219200504604F0EF
:1015400031F9954B5246180049460793002306F09F
:10155000DFF80022002351464846009614F008FCAC
:10156000002800D0B3E2404606F04EF820210120CA
:10157000864E030023405B423340640801395C40DF
:101580000029F6D12040434233406408634052466C
:1015900001267E4C02E00132954210D03100194004
:1015A000494221405B084B401078D9B28842F2D0C2
:1015B0005A467A48136006F027F80A206DE25A4628
:1015C0001360774B1800069306F01EF8754806F076
:1015D0001BF8A0230A9A1B019A4200D346E28023FB
:1015E000DB009A4200D3F8E06F4806F00DF8039B49
:1015F0006E485C1E012606F007F821002020634F8C
:1016000033000B405B423B404908013859400028F9
:10161000F6D152460E4073423B4049084B40D11C24
:101620008C460126624F5948574432001A405242B4
:1016300002405B0853400B700131B942F5D1674657
:101640005A4649461360099805233A0006F060F8A7
:101650000522002339004846009614F0C3FB0028F9
:1016600000D04DE2404605F0CFFF4946059806F010
:101670004FF800220021484614F0EEFB002800D06D
:1016800039E2404605F0C0FF534680225F1D00212D
:101690009200380004F086F805233A00494607987E
:1016A00006F036F80522002339004846009614F06B
:1016B0005FFB002800D019E2404605F0A5FF202678
:1016C000012132480B0023405B4203406408013E85
:1016D0005C40002EF6D12140364A4B42034064085C
:1016E0005244634011000124AC46284802E001370F
:1016F000B94210D022001A40524202405B085340C7
:101700003D78DAB29542F2D05A462448136005F08B
:101710007BFF1220C1E15A4606981360654605F02A
:1017200073FF254805F070FF244B109A9A4200D9A8
:10173000E6E01D4805F068FF049C089D21002A0092
:101740001F4805F0E5FF230003990133043104939A
:1017500003919D4200D357E600209EE1D8EA011094
:101760002CEB011054EB011074EB01107CEB011019
:1017700098EB0110F0EB01101CEC011038EC01109B
:1017800060EC0110B4EC0110303000200300208028
:10179000D8EC0110F8EC01101CED011078ED0110EF
:1017A0003CED011050ED0110E4ED0110F4ED0110DD
:1017B000030200000502000034EE01107F008000EB
:1017C00050EE0110D84805F01FFF1199012900D9EA
:1017D00062E6D64805F018FF61E6530A0B935E02F5
:1017E000039B20219C1E22000120D14F03001340A7
:1017F0005B423B40520801395A400029F6D1104063
:1018000043423B4052085340012257469446C84841
:1018100062461A40524202405B0853407B540131F9
:10182000B142F5D3BA465A460B9F13604946052389
:101830005246C048009705F06BFF05220023514631
:101840004846009714F0CEFA002800D05DE14046EB
:1018500005F0DAFE4946059805F05AFF00220021FE
:10186000484614F0F9FA002800D06FE1404605F030
:10187000CBFE32000021504603F094FF0B9F05235E
:1018800052464946AC48009705F042FF0522002326
:1018900051464846009714F06BFA002800D03EE10C
:1018A000404605F0B1FE20230120A14F0200224056
:1018B00052423A406408013B5440002BF6D120408C
:1018C00042423A4050460127AC4664086240984C78
:1018D000390011404942214052084A40C55CD1B20A
:1018E0008D4202D10133B342F2D359468246654656
:1018F0000A60B34200D00DE1069805F085FE76E659
:10190000039B002B00D0A3E05B461968CA078848F8
:101910008027D217490802404A4001245146FF005F
:101920005744230013405B42034052085A400A7058
:101930000131B942F5D15B46099F1A604946062339
:101940005246380005F0E4FE062200235146484680
:10195000009414F047FA002800D00BE1404605F04F
:1019600053FE2A004946754B380005F0D1FE00238E
:1019700029004846714A009414F034FA002800D037
:1019800002E1404605F040FE4946059805F0C0FEDC
:1019900000220021484614F05FFA002800D0DFE062
:1019A000404605F031FE80220021D200504603F06F
:1019B000F9FE062352464946079805F0A9FE06227D
:1019C000002351464846009414F0D2F9002800D074
:1019D000C1E0404605F018FE2A004946574B0798DB
:1019E00005F096FE002329004846544A009414F05E
:1019F000BFF9002800D0B8E0404605F005FE039B83
:101A0000002B38D15B461A688025D3074848DB177E
:101A100003405208012451465340ED0002E0AE421B
:101A200042D0013622001A40524202405B08534025
:101A30008F5DDAB29742F2D05A46136080238A460D
:101A4000DB009E4200D09AE0069805F0DDFD73E6CB
:101A5000190020220124364823000B405B4203403A
:101A60004908013A5940002AF6D14FE7802604235D
:101A700036010B93B4E61A00202101242C482300E0
:101A800013405B420340520801395A400029F6D105
:101A9000BAE72B4805F0B8FD012013B0F0BCBB46F7
:101AA000B246A946A046F0BD5A468A461360CBE727
:101AB0001D4805F0A9FD0220EFE71B4805F0A4FD35
:101AC0000320EAE7184805F09FFD0720E5E71648E0
:101AD00005F09AFD0820E0E71A4805F095FD04207E
:101AE000DBE7114805F090FD0620D6E70E4805F02B
:101AF0008BFD1120D1E70C4805F086FD1020CCE7C6
:101B0000094805F081FD0F20C7E7074805F07CFD77
:101B10000B20C2E70C4805F077FD0E20BDE7024818
:101B200005F072FD0D20B8E768EB01108CEC011098
:101B300003002080A4ED0110C4ED01100600800018
:101B400000EB0110C4EB011078ED0110114805F015
:101B50005BFD0C20A1E70F4805F056FD16209CE721
:101B60000C4805F051FD152097E70A4805F04CFD9B
:101B7000172092E7074805F047FD13208DE7064838
:101B800005F042FD182088E7024805F03DFD1420CD
:101B900083E7C04668EB011078ED0110802310B593
:101BA0000B4C0321A5446A46C0B21B01FFF702FC9F
:101BB000041E08D02100074805F0AAFD200080235C
:101BC0001B019D4410BD044805F01EFDF6E7C0460C
:101BD00000F8FFFF7CEE0110E0EE0110F0B5DE46EC
:101BE000454657464E468023E0B591B090468B4619
:101BF000049008919B01994200D99B46584603F0F6
:101C00008DFD43468246002B00D02CE1C44F3A683C
:101C1000C449D307DB170B4052085340C2483B600E
:101C200005F0F2FC02F02CFA0690079104980FA937
:101C300014F036FA002803D10F9B002B00D030E1BE
:101C4000BA49049814F09AF903000390002B00D1CC
:101C500046E15946089802F0DDFD5B469B089C0072
:101C6000019300239946B24B012609933B004F464E
:101C7000C1469846AB4D02905444019B002B0DD0B9
:101C8000434651461B6832001A4052422A405B08C4
:101C9000534008C1A142F6D1424613600122594681
:101CA0005046039B14F01AFA002800DCCCE0029B9B
:101CB00001379F42E1D3504603F068FD039814F0CA
:101CC000D1F902F0DDF9069B079CC01AA14103F08F
:101CD000CBF80022974B02F0EAFF03F0D1F803F0B3
:101CE000B3FC954B4746C846994602000B000400DA
:101CF00048460D0005F00CFD089803F069F8220035
:101D00002B000690079102F0D2FF00228B4B02F0CD
:101D1000ECFF0B008A4902000800099105F0F8FC6D
:101D2000584603F0FBFC43460390002B00D0A9E08B
:101D30003B68984643467B4ADB07DB171A4043461D
:101D40005B0853407F4904983B6014F017F98046C4
:101D5000002800D1D3E07C4805F056FC02F090F951
:101D60005A460023089242469A46784B05920C93B5
:101D7000774B4A469B46019E0A900B910D92012299
:101D8000059B0899039814F0C9F9002800DC97E036
:101D900053469C00019B039D002B17D001239946BD
:101DA000604B98464A4641463B681A4052425B089F
:101DB0000A405A402B683A609A4203D021005846A4
:101DC00005F0A6FC01340435B442EBD101239C4656
:101DD000029BE24404369A45D1D3059B039898466A
:101DE0000D9B994603F0D2FC404614F03BF902F0FB
:101DF00047F90A9B0B9CC01AA14103F035F8002259
:101E00004C4B02F054FF03F03BF803F01DFC0D00B7
:101E1000040002000B00484605F07AFC069807997A
:101E200022002B0002F043FF0022444B02F05DFF32
:101E300002000B00099805F06BFC11B0F0BCBB462A
:101E4000B246A946A046F0BD18F0E2F8006816F0C8
:101E5000C5F9059018F0DCF8059A0368049909980B
:101E600005F056FC23E74246202101242D4823009B
:101E700013405B420340520801395A400029F6D111
:101E8000274FC5E62022012044462649030023406F
:101E90005B420B406408013A5C40002AF6D1A04640
:101EA00048E7089A9A4200D2CAE62A49049814F0F0
:101EB00065F80023002203900EF034FB039BC5E677
:101EC00018F0A6F8006816F089F9040018F0A0F8D8
:101ED0000368220004990C985B4205F019FC57E74F
:101EE00018F096F8006816F079F9040018F090F8E8
:101EF000220003680499184805F00AFC9DE718F0D1
:101F000087F8006816F06AF9040018F081F8036891
:101F1000220004995B42114805F0FAFB1BE7C0461A
:101F200034300020030020802CEF011010EF01104E
:101F3000C0EF011080842E4150EF01100000503F8F
:101F4000D8EF0110F002021068EF011008F0011044
:101F50001CF00110BCEF011014EF0110F4EF0110A0
:101F6000F0B5DE4657464E4645460400E0B5D74B31
:101F700089B002000490D6491800059305F0C8FB0B
:101F8000200014F03BF9013000D175E1049CD149E7
:101F90002200059805F0BCFBC82003F0BFFB07003A
:101FA000FA2003F0BBFB01268246200014F0D6F88D
:101FB000C94B9946C94B9B46C94B029333004A46CD
:101FC000FA21504605F064F8C821380014F0DEF814
:101FD0003A005146584605F09BFB0299504613F0D3
:101FE000CDFF31000500C8223800303103F0DAFBA4
:101FF00000242B000122C8213800013414F06EF8AF
:10200000B442F6D1280014F02DF8661C052CD5D169
:10201000380003F0BBFB504603F0B8FBB149B248AF
:1020200005F076FBC82003F079FB0500FA2003F0E9
:1020300075FBAE4B80469B46AD4B01270393AD4BE2
:102040009A463B004A46FA21404605F021F8C8214D
:10205000280014F09BF82A004146584605F058FB2A
:102060000399404613F08AFF060017F0D1FF00687D
:1020700016F0B4F8040017F0CBFF220003684146C5
:10208000504605F045FB0024C8220021280003F03B
:1020900089FB013433000122C821280014F03EF8E6
:1020A000BC42F1D1300013F0DDFF671C052CC8D114
:1020B000280003F06BFB404603F068FB049A8E494E
:1020C000059805F025FBC82003F028FB0500FA2041
:1020D00003F024FBC8210700280014F057F8874CB0
:1020E0002900200005F014FB854B9846180014F0D9
:1020F00085F8404614F032F8002800D0D7E0C82117
:10210000280014F043F82900200005F001FB7D4B66
:102110009846180014F072F8404614F01FF8C821D1
:10212000280014F033F82900200005F0F1FA764B6E
:10213000FA219A46754B524600939B463800049B01
:1021400004F0A6FF3900280017F082FF002800D015
:10215000A7E06F4BFA219946380043464A4604F0FF
:1021600097FF2A0039006B4805F0D2FA380002992F
:1021700013F004FF3024060020003100013414F075
:1021800059F8942CF8D1300013F06CFF624B180012
:10219000069313F0E3FFC821280013F0F7FF5F4B0D
:1021A00029001800079305F0B3FA280003F0EEFAAF
:1021B000380003F0EBFA049C59492200059805F019
:1021C000A7FAC82003F0AAFA0700FA2003F0A6FA3B
:1021D00059462300040052460091FA21029004F06F
:1021E00057FF200013F0BAFFC821380013F0CEFFCC
:1021F00039004C4805F08CFA2100380017F06CFFCC
:1022000042464946200004F02DFF21003A0046488E
:1022100005F07EFA2000039913F0B0FE302504008B
:10222000424E200014F02AF80100A84203D02A00F0
:10223000300005F06DFA0135942DF2D1200014F034
:102240001DF8200013F00EFF069813F087FFC82139
:10225000380013F09BFF3900079805F059FA380051
:1022600003F094FA029803F091FA09B0F0BCBB466F
:10227000B246A946A046F0BD17F0CAFE0368112B6E
:1022800000D183E617F0C4FE006815F0A7FF040034
:1022900017F0BEFE220003680499254805F038FABD
:1022A000E3E73A002900234805F032FA51E717F036
:1022B000AFFE006815F092FF804617F0A9FE414678
:1022C00002681D4805F024FA19E7C04654F00110D1
:1022D000DC050210B805021088F0011098F001101A
:1022E00010EF011098050210B4F00110BCF00110BD
:1022F000F0020210D8F0011078050210F4F001107D
:1023000008F101102CF1011034F101103CF1011021
:1023100068F1011070F1011088F1011090F10110C5
:1023200058050210ACF10110C4F10110DCF10110EC
:1023300068F0011048F1011010F10110F0B5DE460F
:10234000454657464E46F34B80461C00E0B502001A
:1023500093B01800F049039305F0DAF942462000E3
:10236000EE4905F0D5F90622002106A803F01AFA75
:10237000404613F0F3FEC0200121400003F0E0F9D5
:10238000041E74D02100E64814F004F8E54E00283D
:1023900040D1E54BE54F9946E54B9A463B004F4609
:1023A0009946BC235B00E5583000290017F050FE29
:1023B000002801D100F07FFC2900380017F048FE0A
:1023C000002801D100F095FC2900484617F040FE96
:1023D000002801D100F085FC2900504617F038FE96
:1023E000002801D100F08DFC2900D24817F030FE02
:1023F000002801D100F08DFC2900CF4817F028FEFD
:102400000523002801D100F057FC200014F02EF81D
:102410000028C6D020000EF0C7FBC02200215200C9
:10242000200003F0BFF90021062206A803F0BAF944
:102430002100300013F0AEFF002812D1BC25012787
:10244000BE4E6D003000615917F002FE002801D029
:1024500000F028FC6B4620001F7614F007F80028D7
:10246000F0D020000EF0A0FB200003F08FF94246D0
:10247000B349039805F04CF9404613F06FFEB14D97
:10248000FA24280013F036FFFA212800890014F0FE
:102490001DF813F0E7FD06A9280013F001FEAA4F6E
:1024A0002800390013F06AFD01000600FF2013F038
:1024B000C1FEA4003000013C13F0E0FE002CF9D175
:1024C000300013F0CFFDA14B280019009A4613F0FD
:1024D00055FD13F0C7FDFA212800C90013F0F6FFDF
:1024E00013F0C0FD06A9280013F0DAFD51462800BC
:1024F00013F044FDFA240600A4003000013C13F060
:10250000BDFE002CF9D1FA24A4003000013C13F0E8
:10251000B5FE002CF9D1300013F0A4FD06A9280067
:1025200013F0BEFD8A49280013F0D0FF13F09AFD86
:1025300006A9280013F0B4FD3900280013F01EFD91
:10254000FA240600A4003000013C13F097FE002C92
:10255000F9D1F534FF343000013C13F08FFE002C2C
:10256000F9D1300013F07EFD0021280013F0AEFFFA
:1025700013F078FD280006A913F092FD039B424654
:1025800074491800994605F0C3F8C82003F0C6F84E
:102590000500714813F0E2FD704E300013F0DEFDCF
:1025A0006F4813F0DBFD404613F0D8FD300013F008
:1025B000D5FD4346581C13F0D1FD6A4813F01EFEAA
:1025C000694813F01BFE694E300013F017FE68488F
:1025D00013F014FE674813F011FE300013F0BEFD37
:1025E000654813F00BFE654813F0B8FD644813F01E
:1025F000B5FD644BC821644A28000093434604F0AB
:1026000047FD624813F05EFE614813F0A7FD614E7E
:10261000300013F057FE300013F0A0FD5E4813F0B9
:102620009DFD280003F0B2F84B46424618005B4976
:10263000039305F06DF8C82003F070F80600FA2047
:1026400003F06CF80500564A4346FA2104F020FDD9
:102650003900280013F092FC5146280013F08EFC3C
:10266000504B280019009B4613F088FC8146C82275
:102670003021300003F096F84B4601220A21300049
:1026800013F02CFD06A9280013F00AFD484613F0AC
:10269000E9FC280006A913F003FD2800424913F0C5
:1026A0006DFC8146C8223121300003F07BF84B4697
:1026B0000A220121300013F011FD06A9280013F0B1
:1026C000EFFC484613F0CEFC280006A913F0E8FC06
:1026D0003900280013F052FC8146C8220021300046
:1026E00003F060F84B4601221421300013F016FD70
:1026F0004B4601220121300013F0F0FC484613F054
:10270000B1FC280006A913F0CBFC5946280013F0B1
:1027100035FC4BE054F00110C40602109406021080
:102720004CDE011008F1011008F2011014F2011042
:1027300020F201102CF2011038F201102CF10110DE
:102740008006021044F20110F0020210BCEF0110EA
:10275000DC0500005C06021054F2011068EA01106A
:1027600068F2011078F2011080F201108CF2011071
:102770009CF20110B0F20110C4F20110E0F201105D
:10278000FCF2011030F3011084EA01104CF3011047
:1027900088F1011024F3011058F3011048060210CB
:1027A00060F3011010EF011050E8011013F05AFC13
:1027B00006A9280013F074FC300002F0E7FF28009F
:1027C00002F0E4FF4246F549039804F0A1FF4046B9
:1027D00013F0C4FC0022F249F24813F025FFF24E38
:1027E000300013F00BFDF14813F008FD5946F04896
:1027F00013F0C4FB050001222B002321ED4813F048
:102800006DFC280013F02EFC300013F0A7FCEA4EFC
:102810003900300013F0B2FB81462D22002106A8BA
:1028200002F0C0FF4A462D2106A813F01FFFE34D1A
:1028300000222900300013F0F7FE484613F012FC86
:1028400000222900300013F0EFFE002800D03AE209
:102850003900300013F092FBD94E5946300013F086
:102860008DFB814629224B460121D64813F036FCC8
:10287000484613F0F7FB29000022300013F0D4FE85
:1028800001222900300013F0CFFECF4813F066FC80
:102890003900CE4813F072FB05002D22002106A856
:1028A00002F080FF2A002D2106A813F0DFFE280089
:1028B00013F0D8FBC6494246039804F029FF40466E
:1028C00013F04CFCC34802F029FFC34B06009B46A3
:1028D000180002F023FFC5235A46C04DB354814669
:1028E000280013F007FD5946280013F0EFFD13F000
:1028F000B9FB280006A913F0D3FB3900280013F018
:102900003DFB5A460700FF21300002F04BFF8021BB
:1029100004223B008900300013F000FC5B463800C5
:10292000059313F09FFB5146280013F027FB050089
:1029300013F0F8FC00220021280013F0F5FC280019
:1029400013F0F0FC5A460021484602F02BFFC42742
:1029500000237F0005932B000122042105A813F01A
:10296000BDFB4946059B28009A00535013F0DAFC42
:10297000059B01330593BB42EDD90027280013F0D6
:10298000D1FC00220021280013F0CEFC0021924A45
:10299000300002F007FF2B0001229149300013F0B4
:1029A000BDFBFF218C4A3000059702F0FBFE0022A0
:1029B0000021280013F0B8FC00200597894F2B0058
:1029C00001220121301813F0A9FB280013F0AAFC02
:1029D000059801300590B842F1D9FF217E4A3000B8
:1029E00002F0E0FE00220021280013F09DFC0023ED
:1029F00000207C4F05932B0003220121301813F097
:102A00008DFBC4230598DB00984200D22FE10330F0
:102A10000590B842EFD90123A3469A4652466E4B21
:102A200051469F1A2800002213F07EFC280013F064
:102A300079FC48460021684A02F0B4FE0023BC0835
:102A4000059323004C46B1461E002B0001220421B1
:102A500005A813F043FB059B28009A00135113F0BF
:102A600061FC059B01330593B342EED303234E462D
:102A700028009F4313F056FC00220021280013F089
:102A800053FC57440021544A300002F08BFE2B00C7
:102A900001223900300013F041FB5346FF214E4A1A
:102AA0003000059302F07EFE00220021280013F082
:102AB0003BFC0023A146002005932B0001220121AD
:102AC000301813F02BFB280013F02CFC0598013074
:102AD00005908742F1D8FF213F4A300002F062FEA4
:102AE00000220021280013F01FFC00230020059382
:102AF0003C1F2B0003220121301813F00FFB059817
:102B0000A04200D2BDE0033005908742F1D80123F6
:102B10009C46E2445346252B80D1280013F0A2FAAC
:102B2000300002F033FE484602F030FE42462E49A5
:102B3000039804F0EDFD404613F010FB2B4DF326F7
:102B4000280013F0D7FB2800294913F017FA0023B7
:102B50005C4605000693F6002B000422012106A81E
:102B600013F0BCFA069B01330693B342F4D3002260
:102B7000002328000DF0D6FC2B000422012106A81A
:102B800013F0CCFA02220021280013F0CDFB022220
:102B90001849280013F0C8FB2EE0C0463406021086
:102BA00070F301107CF3011088F3011094F301100D
:102BB000A4F30110BCF30110E0F30110ECF30110D9
:102BC0002CF4011038F4011064F4011078F40110B1
:102BD00018060210260600002506000088F40110E1
:102BE0002406000023060000FC05021094F40110E6
:102BF000ACF4011040C3FFFF2B000122012106A805
:102C000013F08CFA474E31000022280013F08CFBA1
:102C1000103E2B000422012106A813F07FFA0C2E8F
:102C2000F1D1022228000427F3263F4913F07CFB50
:102C30007F42760121000122280013F075FB2B0052
:102C40000422012106A813F069FA391B0122280089
:102C5000043413F069FBB442ECD1280013F002FAFB
:102C600013B0F0BCBB46B246A946A046F0BD280052
:102C700013F058FB059803300590B84200D8BAE627
:102C8000C9E6280013F04EFB0598033005908742F3
:102C900000D92EE701239C46E2445346252B00D061
:102CA000BCE63AE7200013F0E1FB002801D1FFF772
:102CB000C9FBFFF7D6FB00231020012202A9091847
:102CC000CA54FFF7A2FB17F0A3F9006815F086FAC3
:102CD000814617F09DF949460268144804F018FD32
:102CE000B6E510200223012202A90918CA54FFF7F1
:102CF0008CFB10200123012202A90918CA54FFF7F6
:102D000084FB10200323012202A90918CA54FFF7EB
:102D10007CFB10200423012202A90918CA54FFF7E2
:102D200074FBC0465C1E0000A0E1FFFF10F4011020
:102D3000D0231B061B68AC4A9900F0B5DE468B46D3
:102D400051585A4253412F2257464E4645465B4200
:102D500093439A46A54BE0B59C4683B0002601916B
:102D6000E244002938D0A24B99465246F308083372
:102D70009B009D580123340098460836002D22D030
:102D80000F212000294001342D09002919D04B467C
:102D90005A469A580300C240203BDB171340424674
:102DA00013420CD107220F000240920097403A00D4
:102DB000C308904F3C339B00DA51019B9847002D8C
:102DC00001D0B442DCD3202ECFD103B0F0BCBB463F
:102DD000B246A946A046F0BD854E5F4600210F23AE
:102DE000B346CC0822005046083292001258002AFE
:102DF00000D1D0E0180010408046100913421AD0CC
:102E00005D46ED59A94620256D42AC468C44654689
:102E1000ED17AC464D46CD40A94665464E46354079
:102E20000126354204D14646724D3C34A400665119
:102E3000002800D1AFE01C000440A446140A03425D
:102E40001AD0481C80465846C059464681464D46D1
:102E50000800F5401F38C01728400125284208D136
:102E600065462D01AC46F0086646624D3C30800058
:102E70004651002C00D18EE0180020408446100BF3
:102E8000234211D08C1CA0465C46E4594646A1461C
:102E90004D460C00F5401E3CE4172C4001252C4209
:102EA00000D182E0002876D01C000440A446140C17
:102EB000034210D0C81C80465846C0594646814639
:102EC0004D460800F5401D38C0172840012528420E
:102ED00075D0002C5FD0180020408046100D234292
:102EE0000ED00C1DA4466546414CE459EC40A14669
:102EF0000C004D461C3CE40F2C426AD000284AD0FE
:102F00001C000440A446140E034218D0481D8046FD
:102F100045463748C059E840814608004D461B38B1
:102F2000C00F284209D165462D05AC46404666468D
:102F3000C008304D3C3080004651002C2BD018008A
:102F400020408446120F23422AD029488C1D8146F6
:102F5000C059E0408046080045461A38C00F284254
:102F600006D1E0086446234D3C30240680004451DD
:102F7000002A10D04846C059CC1DE04084460800C5
:102F800065461938C00F284205D1E0083C30194C7D
:102F90001207800002510831202900D021E714E7F0
:102FA000002AF8D012488146E4E765462D02AC4677
:102FB000F40866460F4D3C34A400665172E765463E
:102FC0002D03AC46F00866460A4D3C308000465161
:102FD0007FE745462D04A84664464646E408054D6D
:102FE0003C34A400665189E7A42B00203041014005
:102FF0007430002000400140094A83009A1810B53F
:1030000014684022544080322240064CC000A4463E
:1030100063441A60044B9C466044416010BDC04646
:1030200004C0014004D0014000400140074B800033
:10303000C3181B68C90092000A435A400C2313406E
:10304000034A9446604403607047C04604C0014090
:1030500004D00140064B8000C3181B68054A0901D3
:1030600059409446302360440B4003607047C0468B
:1030700004C0014004D00140F8B545469846D0232D
:103080001B06DE461C689B462B4B57469A46A30000
:103090004E469946E0B5534616004A469B580700EF
:1030A0000D00002B34D04346002B3FD053464A46F8
:1030B00041469950D0231B061C6863425C412F2275
:1030C0000720634293431D4A38409446FA08110092
:1030D000800085403C311A486344890092000D50BD
:1030E0009B18002E0ED08022920194466344012149
:1030F0000D201D6000F00AF9F0BCBB46B246A9469F
:10310000A046F8BDC0229201944663441D60F3E7D7
:103110004346002BD1D0534641460D209950002202
:10312000084900F055F95B461C68C6E70D200549C3
:1031300000F048FABAE7C046A42B00203041014015
:1031400000400140312D00100123D022834012069F
:1031500093629361094A83009A1811684022514092
:1031600080320A400649C0008C4663441A60054B11
:103170009C460523604443607047C04604C001403C
:1031800004D00140004001408023DB051868000F97
:103190007047C0460FB400B5084883B004F034FA55
:1031A000049B002B07D005A91800019103F096FF9E
:1031B000034804F029FA012003F0A8FFB0F401103D
:1031C00078EE011070B5EFF3108C72B60D4D2B68D0
:1031D000002BFCD0BFF35F8F0724CB08C618C05C60
:1031E00001230C40A3401C000440034207D11843B4
:1031F0003070BFF35F8F2C608CF3108870BD1000AF
:10320000FFF7C8FF2C0100D0F8B54746CE468846E8
:1032100080B5EFF3108C72B61C4D2C68002CFCD0DE
:10322000BFF35F8F9A4222D807210126894602E028
:103230000132934218D34D4637001540AF40D408B1
:103240000119045D2742F3D110003C430C70BFF319
:103250005F8F00220D4B1A608CF3108800280EDB64
:10326000C0BCB946B046F8BD01204042EFE7BFF30D
:103270005F8F00232B608CF310880120404243466F
:10328000002BEDD00898FFF785FFC0462C0100D039
:10329000044A1078431CDBB2172B00D9102313709B
:1032A0007047C046AC15002010B5064B064C82B0E6
:1032B0000100009318221F232000FFF7A5FF02B092
:1032C00010BDC046C0F40110BC2B00200021044BEF
:1032D000044ABFF35F8F02C39342FAD17047C046DE
:1032E000000100D0800100D0054B064A1360064A59
:1032F000136053609360D3601361536193617047AF
:103300008080808000E400E004E400E01F23184097
:103310001E3B8340002905D0C021044A4900535078
:1033200013607047802201498B50FAE700E100E00A
:1033300001228240034B1B6813405A1E9341D8B2AE
:103340007047C04600E100E001238340014A13605A
:103350007047C04600E200E0064B10309B688000DA
:10336000C358054A00209B1A2F229A424041C0B2FE
:103370007047C04600ED00E0B015002070B50D00AC
:10338000EFF3108672B60F4A1368002BFCD0BFF320
:103390005F8F0D4B10309B6884001B590B4A934282
:1033A00003D09D4201D001F02FF9074B9B681D51BE
:1033B000BFF35F8FBFF35F8F0022024B1A6086F36B
:1033C000108870BD240100D000ED00E0CD01001098
:1033D000F0B557464E46DE464546E0B585B0060098
:1033E00000911700EFF3108B72B66A4A1368002B36
:1033F000FCD0BFF35F8F0025674B5D579A46002DC9
:1034000000DAA9E06B00654C01935B199B009846BC
:10341000A146C1444B4652469B7910361370604B0F
:10342000B6009B6899590B1B2F2B33D95D4B9942E2
:1034300000D0ACE0019B42469C465B4B6544AD002E
:1034400063535A4B0232A218043B9B1A1B05584A7D
:103450005B0D651913436B80564B0121AB80FF2335
:10346000AB71009BEF71AB604B460B4319004C4BAB
:103470009B689951BFF35F8FBFF35F8F0022454B6D
:103480001A608BF3108805B0F0BCBB46B246A94663
:10349000A046F0BD01200A008243D3798C46BB428E
:1034A00031D84546130044491B1B5B415943090D64
:1034B0003D4B63533D4B02356519043B5B1B1B05BC
:1034C0003B4D5B0D2B43AA464D466B800425AC4615
:1034D0005546E044131F44441B1B1B055B0D1D4355
:1034E0004B46997100999D8099604946DF71334B35
:1034F00001431360BBE75800C01880002018C17951
:10350000B9422FD902000623D356002BF3DA0293D7
:103510002B4B61460393131D9A4604235B429C4642
:10352000E14450464B461B1A1B055B0D9C46204B45
:10353000957198466346404603439380019B5A1910
:103540009200039BA418A380029B1C4AA371009BBA
:103550002260E771A3608AE701F056F80025534620
:103560005D574FE7908802934005131D9A46031557
:1035700061469C464046D444634604302018181ADD
:10358000E0230005400D1B0218430390C5E701F03E
:103590003BF84FE7240100D0BF300020B0150020D9
:1035A00000ED00E0CD01001000A1FFFFE0150020BC
:1035B00000E0FFFF01BDFFFFAAAA0000014880470D
:1035C00001BD0000F0B5DE4657464E464546E0B523
:1035D0000C0083B0EFF3108872B6634A1368002BB7
:1035E000FCD0BFF35F8F614B61499A6803001033D1
:1035F0009F00D55901938D4243D0A54254D05D4ED2
:10360000AA1B2F2A3DD85C4B9B461B689946012379
:103610001A009C4682404B4613401F22994663463F
:10362000024093409A4680225B4650469850BFF332
:103630005F8FEFF305839B46002B37D0019B5B45E3
:1036400001D000F0E1FF01232A009A4390688442F0
:1036500008D176E04B005B189B00F3189868844211
:1036600036D01A00062151560029F3DA844254D08C
:103670004B46002B27D0C02251463F4B5200995059
:1036800019603A4B9B68DD51BFF35F8FBFF35F8FCB
:103690000022354B1A6088F3108803B0F0BCBB469B
:1036A000B246A946A046F0BD0D00EAE72A006346EF
:1036B0009A4390688442D5D1062010561300002802
:1036C0000ADA0D0031E0802351462B4AD150D8E769
:1036D00006201856002821DB4200111889007418B2
:1036E0008B46A1689960E179D9710621615699717B
:1036F000002924DBA488F11A640524155C44091907
:1037000009051E4C490D2143998013181C4A9B0042
:103710001178F31899711070AAE71300594600291F
:1037200014D1FF3191711749918015490A789A7126
:10373000154A9B1B5B415A43120D0A7098E71149C9
:10374000E2E70620105613000028C5DA0F4A104998
:10375000D21A083A5002400D014399800D4952088F
:103760000A43DA8084E7C046240100D000ED00E07F
:10377000CD010010B015002000E100E000E0FFFFE7
:10378000BF30002001BDFFFFAAAA0000EA150020FB
:1037900000F0FFFF00F8FFFF70B501240443EFF3D2
:1037A0000581EFF3108C72B6214A1368002BFCD010
:1037B000BFF35F8F1F4B05001F4AED1A6D416A432F
:1037C000120D1E4D8900AE6852B27658A6421CD02A
:1037D0000621595691421CD012215956914222D0AD
:1037E0001E215956914220D02A2159560324914234
:1037F00010D0134B19781A708171BFF35F8F0022BC
:103800000B4B1A608CF3108870BDAB680D4C5C508C
:10381000EFE700246100091989005B18FF21997105
:1038200009499980E5E70124F4E70224F2E7C0465C
:10383000240100D0B0150020AAAA000000ED00E08D
:10384000BF300020CD01001001BDFFFF10B5084BB7
:10385000084C82B001000093002205232000FFF7EE
:10386000D3FC002801DB1F23181A02B010BDC0468C
:10387000DCF40110C330002070B504000E00150008
:10388000FFF706FD0100200000F006F8A680E580A5
:10389000BFF35F8F70BDC046024B9C4661448900F8
:1038A000016070474000003470B5114C114DAC42BE
:1038B0000FD2FF262368002B0CD0FFF7E9FC010094
:1038C0002000FFF7E9FFA680BFF35F8F0834AC420A
:1038D000F0D370BDFFF7DCFC01002000FFF7DCFF38
:1038E0002671BFF35F8F0834AC42E3D3F1E7C046E3
:1038F000B01D0020C81D002010B50400FFF7C8FC53
:1039000001002000FFF7C8FFFF232371BFF35F8F83
:1039100010BDC04610B504000120FFF7C5FC034BE5
:10392000C3189B002360BFF35F8F10BD40000034BD
:10393000034B9C46614489000160BFF35F8F704771
:10394000400000340A4B1968EFF3108072B60A6821
:10395000002AFCD0BFF35F8F1B68BFF35F8F00228C
:103960001A6080F3108840BF002000217047C046D5
:1039700088300020F0B5DE4657464E464546E0B555
:1039800087B0EFF30583032201251A40954091008B
:103990008846A946B34B03925C58B34B1D60B34BAA
:1039A00004934B46B24843630823E55E002D37DAA3
:1039B000A3881BB2002B00DBADE0A379002B00D065
:1039C000EEE00823E05E002820DB430062691B185C
:1039D000DB00D3189E68DD68731C00D111E1A44898
:1039E00001004144826A0B69B71A9B1A9F4215D3A2
:1039F0000123026A039883401A420FD09C4800F0CA
:103A000037FB8D4202DCCCD18642CAD940BF07B019
:103A1000F0BCBB46B246A946A046F0BD0E61EDE73C
:103A200062696B0092465B19DB009A4453469E68BC
:103A3000DF6800F01DFB8F42BADC00D103E1002FEC
:103A400000DAE8E05246534652691B699346049AED
:103A5000934200D1D9E052460821605E52880004AA
:103A6000594610439847009001910099019A0B0024
:103A70001000134300D1CEE013000A00B61A9F4194
:103A8000002806DB7A4800F0F3FA009E019F361802
:103A90004F4153469E60DF6000229A5E002A00DAA2
:103AA00086E7530099186069C900411802938B6832
:103AB000C9689B46B94200DD7AE702D1B34200D91A
:103AC00076E708239C46A444059565462281A446D2
:103AD000029B2C0006E053009918C90041188D681C
:103AE000C968AB469B18DB00C318B94206DC00D19D
:103AF000B3E01C000023E25E002AECDA23006446F7
:103B00009C4653461A806346059D1D80A3881BB2C0
:103B1000002B00DA51E72269EFF3108172B61368C7
:103B2000002BFCD0BFF35F8F0123A7885B42A380EB
:103B30003FB22369BFF35F8F00221A6081F31088C0
:103B4000002F00DA39E72300083322009A4666691D
:103B50007B00DB19DB00F318996850468C4608247B
:103B6000115FDD68002910DB029306E0AB4244D010
:103B70000023E15E2000002906DB4C006418E4000D
:103B80003419E368AB42F1DD029B078000201F5E21
:103B90001980002FDCDA1400A379002B00D110E784
:103BA0000023A37126000823E15E08364B1C00D1D8
:103BB0002CE70800A246656902E03E004B1C1AD0C3
:103BC0004B005B18DB00EF180A008C46E95E7B882F
:103BD0001BB2002BF1DA01235B42DC17BB60FC60F7
:103BE000824205D0534631801B893B8053461A815F
:103BF00060464B1CE4D15446E5E6A3686345B7D95B
:103C0000C2E76B1C00D0EAE6F8E65B4658461B6943
:103C1000984700281BD153461B8822692381EFF364
:103C2000108372B611680029FCD0BFF35F8F514634
:103C300062880A8022696580BFF35F8F002111606E
:103C400083F31088B4E6864200D8F8E6B0E65B4617
:103C50001A685B680092019307E7B34500D848E70C
:103C60004CE7C046603000203C70054075390010BC
:103C70000040054070B52E4C2569002D04D00A2166
:103C80002C48FFF709FE70BD2B4E0321300000F0D9
:103C9000E5F9E660FFF7FCFA284B03229C46D023A7
:103CA00022701B061B6801216370254B6044A360D2
:103CB0000F23800020610220638063694942A18054
:103CC00019800231198647311D83585218315A52D2
:103CD00075325C39995218320131995218320131DA
:103CE0009952183201319952083518329D520231D9
:103CF00018329952183201319952183201319952C1
:103D00001832013199521832013199521832013169
:103D100099520C4B0C49DC6001303562FFF72EFBE9
:103D200001210320FFF7F2FA084B1D60A7E7C04608
:103D3000F815002088300020004005404000003485
:103D4000FFFF10006030002075390010386005401A
:103D500000487047F8150020F8B51F0008AB1B7825
:103D600004001600002B08D100F08AF932003B0055
:103D7000121A8B41002B00DA52E02269EFF3108017
:103D800072B61368002BFCD0BFF35F8F0223E15E95
:103D900063694A005218D2009B182269002936DB59
:103DA0001D886580BFF35F8F0025156080F3108844
:103DB000069A9E60DF601A61079A5A615A8801323A
:103DC0005204520C101C002A1FD082B258800804E2
:103DD00010432669EFF3108772B63268002AFCD0D0
:103DE000BFF35F8FA2881A80A1802369BFF35F8F22
:103DF00000221A6087F310880A4923788C46013222
:103E00009A40E36863441A60F8BD0120DDE7BFF320
:103E10005F8F0023136080F3108801204042F3E796
:103E20000020F1E73C20000070B501000469EFF3C9
:103E3000108C72B620680028FCD0BFF35F8F022080
:103E40000D5E4C6968004019C00024180869002DF7
:103E500036DB26884E80BFF35F8F002606608CF32A
:103E60001088E36063880498013320615B0405983F
:103E70005B0CA26060611A1C002B1FD093B2280457
:103E8000628018430A69EFF3108C72B61368002B36
:103E9000FCD0BFF35F8F8B8823808D800B69BFF3CD
:103EA0005F8F00221A608CF310880B7801329A40E1
:103EB000CB6808498C4663441A6070BD0122DDE777
:103EC000BFF35F8F002303608CF310880120404212
:103ED000F3E7C0463C20000010B543890A14934222
:103EE0001ADD53009B184269DB00D3180469EFF315
:103EF000108C72B62268002AFCD0BFF35F8F5A88FC
:103F0000090494B2090C8A4208D00369BFF35F8F99
:103F100000221A608CF31088002010BD802212024B
:103F200014435C80012302698371BFF35F8F00211A
:103F300011608CF31088044902788C469340C26863
:103F4000012062441360E8E73C200000407870479D
:103F5000F0B557464E46DE464546E0B506000F0032
:103F600085B0EFF3058399468B46002B12D0384974
:103F700000204B6ABB4206D38A6ADB1B591E8B4169
:103F8000B2424041184305B0F0BCBB46B246A94618
:103F9000A046F0BD2F4B9A46DB68984653461B78E7
:103FA0004046039300F064F84246039B0400043348
:103FB0009B009B580D001B1A39003000001BA941C3
:103FC000894510DC0DD020BF214A0020536A5B4593
:103FD000D9D3926ADB1B591E8B41B2424041184330
:103FE000D1E78342EFD900F04BF832003B00121AC0
:103FF0008B41002B1ADB00230193174B32000093F7
:1040000050463B00FFF710FF011E0FDD104B5A6AB0
:104010005A451BD39B6AB34216D35046FFF75CFF49
:104020000B4A0020536A5B45ADD3D2E7084A002013
:10403000536A5B45A7D30020926ADB1BB242404122
:104040005A1E934118439EE75A45E6D120BFE4E744
:1040500000400540F81500204539001010B5024A0F
:104060000248FFF7AFF810BDF8F40110C02B002094
:104070000300416A0A00986A596A8A42FAD1704775
:10408000034B596A0A00986A596A9142FAD17047FB
:104090000040054070B504000D00174A536A19002E
:1040A000966A536A8B42FAD13000190024184D41A8
:1040B000AB4216D813D0104B2A005B6A9D4203D93D
:1040C0000D494B6A9342FCD3934207D10A4A02E05E
:1040D000516A994202D1916AA142F9D370BDA642B8
:1040E000E9D9054B5B6A1C005A1CEFD00122012460
:1040F0006442E5175242E3E700400540F8B504008A
:1041000006200D0000F078F9002844D0374B3849DC
:10411000E3185A1E93418022120494465B429B0D81
:10412000344A9B0563441360334A136018000A68DD
:104130009043FBD12D4B314AE31859424B4180212A
:104140005B0049000620995200F056F92900C00092
:1041500000F060FB0130C3091ED1402701226262DA
:10416000A362266BF30722D4E36A254B0620E518E9
:1041700000232B60266300F03FF93900800000F037
:1041800049FB7023E26A5A400E3313402B601D4BEB
:1041900023630323A364F8BD1B4A93421ED9002363
:1041A0001A4A1B4F6262A362266BF307DCD5194BD8
:1041B000144AE3181A60656AA36A0620AD01ED1877
:1041C00000F01AF9144900F025FBAD0201002800A7
:1041D00000F020FB0021FFF75DFFC5E74006800EE1
:1041E0009F011A003F180300B9E7C0460080FCBFDA
:1041F00008C0004000E0004000F00040983000207F
:104200002C10000001030000FEFF0000FFFF000073
:10421000C0FF3F00303000004E0E0000F8B5DE4613
:104220004E4657464546E0B58B4605000A991800AC
:10423000160000F0EFFA0A9B6C001F02324B641963
:104240009C46A4006444636881469F4200D967602D
:104250002B1FDBB29846012B30D9C02380229B0153
:10426000E31812011A60294BAD0059599A460029EA
:104270001BD17301E026226853401E408023424632
:104280005B01E3181E60012A30D9802380229B0144
:10429000E31812011A6053464A4667605A51F0BC4F
:1042A000BB46B246A946A046F8BD586900F0B2FA2E
:1042B000013043001B18033BFDD2DAE75B46012BBC
:1042C000CBD1C02303229B01E3181A60023AA368F2
:1042D0001A42FCD07301E0262268AD0053401E4014
:1042E00080230A4A5B019246E3181E605A46216801
:1042F000514003220A401A6001225B469A40A3689B
:104300001A42FCD0C1E7C04600800040C42B002008
:10431000F0B546464F46D646C0B51F00344B440064
:104320009C462418A4006444636888461600FF2B4A
:1043300002D880235B006360031FDBB29A46012B27
:1043400030D9C02380229B01E31812011A60294B47
:1043500085005959994600291BD17301E02622682E
:1043600053401E40802352465B01E3181E60012A21
:1043700030D9802380229B01E31812011A60802328
:104380005B0063604B465F51E0BCBA46B146A8464D
:10439000F0BD586900F03EFA013043001B18033BA2
:1043A000FDD2DAE74346012BCBD1C02303229B0188
:1043B000E3181A60023AA3681A42FCD07301E0269F
:1043C0002268850053401E4080230A4A5B019146C3
:1043D000E3181E6042462168514003220A401A60D9
:1043E000012342469340A2681342FCD0C1E7C04675
:1043F00000800040C42B0020014B8000C058704753
:10440000C42B0020F8B5040021481E0017000D0041
:1044100000F000FA0100380000F0FCF9069B3604B9
:104420001B031E432368002B20DB1A4B1A49E31899
:104430005A1E93418022920194465B421B0B174AFD
:104440001B0363441360164A13601F000A689743F6
:10445000FBD1144B2560E2182123A0601360236870
:10446000002BFCDA0823E6601360F8BD3F232268C6
:104470001340AB42D9D1A3681B051B0D8342D4D195
:10448000EE22E368D2021340B342CED1EDE7C0463C
:10449000001BB7000040FDBF08C0004000E0004026
:1044A00000F000400430000010B580241C4BE405EF
:1044B0001C6000281AD001231A4C18431A4BDC61E7
:1044C0001A4C44401C62596298628021144BC90501
:1044D0001960174817490860E021C9041960002ACB
:1044E00007D18022144B12061A6010BD0E4BD86102
:1044F000EBE753019B1A9B009A18802312015B047F
:104500009A4209D213000D490B60074B5A60802272
:10451000094BD2051A60E8E7094B1A00F3E7C046D9
:1045200000B00540D3C007B0008005402D3FF84FD4
:10453000FCFF01000820014000A0054038300020A9
:10454000FFFFFF008023024A9B000B43D3627047AA
:1045500000800540002310B50100988A1B8B984706
:1045600010BDC046162310B50100188802331B8801
:10457000984710BDF8B54746CE4680B50F1E18D0F7
:1045800014239946043304000025012698464B461F
:104590001888434621681B88984701C4431E9841E8
:1045A00001350640AF42F2D13000C0BCB946B0463A
:1045B000F8BD0126F8E7C046002370B504000D00E1
:1045C000988A05491B8B984703000020002C01DBCB
:1045D0000130A0402900984755420000AA23064A0E
:1045E0001B0113608D235B00D3600449044B1960E9
:1045F0005368002BFCDA70470040024000B0FA001C
:10460000006002407047C04610B50148FEF7C2FD89
:104610001CF5011070B5074D074EB54209D20024B4
:10462000013E761BB60808CD984723000134B342FB
:10463000F9D170BD00DE01103CDE0110054B064AC9
:1046400006491A60064A074B1A6010000B68984327
:10465000FBD1704700E00040BFCDFBFE08C000402A
:10466000FE7F3C0000F00040044BDB6C002B03D1CC
:104670008022034BD2021A607047C04600001150DE
:104680004C201150044A054B1A60054A1368DB019F
:104690008033FBD17047C046FFFFFF0100F00040B0
:1046A00008C000404022034B9A675A671A67DA66CF
:1046B0007047C04600F0014010B5FEF707FE10BD80
:1046C00070B5044D044CA968C022200001F070F8B8
:1046D000AC6070BD00ED00E000000020002310B5CC
:1046E000294C82B0A367FFF779FF0122274B1A609C
:1046F000636C012BFCD10322254B1A60224A936B79
:10470000012BFCD1013300930121224A22480433BA
:10471000FFF778FE052301210093204A2048FFF788
:1047200071FE0022022104201E4BFFF7F1FD002242
:10473000012105201C4BFFF7EBFD00220021072083
:104740001A4BFFF7E5FD002200210820174BFFF769
:10475000DFFD8023DB000093002200210920134BA2
:10476000FFF75CFD0022104B00210620FFF7D0FD73
:104770000420FFF741FE0E4900F04CF80100002034
:10478000FFF7E0FE02B010BD008000403CB00040EA
:1047900030B00040002F685900800240008C8647EE
:1047A00000C00240001BB70040597307006CDC02D8
:1047B00040420F0001480421014B18471016002009
:1047C00075450010124A936F9B0815D29066D1660A
:1047D000002905D0FFE7FFE7FFE7516F106F704733
:1047E00004B580210906C2175140002800D0C843F3
:1047F00019F0A6FA002104BDF0B5146E556E576F7E
:10480000166FFFF7E3FF1466556657671667F0BD2E
:10481000000000D0114A936F9B0813D210665166B6
:10482000002905D0FFE7FFE7FFE7516F106F7047E2
:1048300004B5002801D00020C04319F081FA0021FE
:1048400004BDC046F0B5146E556E576F166FFFF776
:10485000E5FF1466556657671667F0BD000000D087
:1048600094464A4A926F9208624601D228E0C046B6
:10487000F0B5464E346E756E776F366F00F020F8E7
:104880009446424A14665566576716676246F0BDFD
:1048900094463E4A926F9208624601D254E0C04666
:1048A000F0B53A4E346E756E776F366F00F04CF897
:1048B0009446364A14665566576716676246F0BDD9
:1048C000002B24DB11D000293EDA00B5C943404259
:1048D00000D1013100F038F8C943404200D1013124
:1048E000DB43524200D1013300BD002AEBD1002846
:1048F00001D1002905D00020C90FC90701D1C0434B
:10490000410800B519F014FA0022002300BD00B5DB
:1049100000290ADBDB43524200D1013300F014F8D6
:10492000C943404200D1013100BDC943404200D1DA
:104930000131DB43524200D1013300F005F8DB4383
:10494000524200D1013300BD002923D1002B18D1E0
:10495000002A0CD0BC460D4F38667A660021002331
:10496000FFE7FFE7FFE77A6F386F67467047002879
:1049700001D00748010000B519F0DAF90022002340
:1049800000BD02000B00002000217047000000D095
:10499000FFFFFFFF002B00D0BFE0130C28D1002A3F
:1049A000E7D080B4114F39667A66FFE7FFE730B48D
:1049B000040C7B6F396F1B0423433B667A66FFE769
:1049C000FFE7FFE7C04684B27B6F3D6F1B042343C4
:1049D0003B667A66FFE7FFE7C04600232C042D0CF8
:1049E0007A6F386F00196941B0BC7047000000D081
:1049F000F0B594460025140E01D112020835140FAB
:104A000001D112010435940F01D192000235D40F67
:104A100001D152000135D40B0134254F7C66254C61
:104A20003C660E0C93B2FFE7FFE7FFE73C6F66437F
:104A3000360C7703BE467343DF0B5B04C01AB941E3
:104A4000130C7343DB18C91ACE086643360CB64400
:104A500093B273431F0F1B01C01AB941130C734368
:104A60001F0B1B05C01AB941860D8F023E436643DA
:104A7000360C092D24DB520A7243801A7703460A4A
:104A80006643360C16235B1BDE40DF40BF196446CD
:104A90006643821B7046043506330100D940A840A6
:104AA000C01900D30131A24206D20023F0BD00009C
:104AB000000000D0FFFFFFFF121B0130F3D3F1E72E
:104AC00009277F1BFE406446A2B27243801A00D2BF
:104AD0000139220C7243130C1204821A99410B0003
:104AE0007046043513370100F940A840801900D3FF
:104AF0000131002B02D1A2420AD2F0BD013000D315
:104B00000131121BFAD2013BF8D1A24200D2F0BD12
:104B1000013000D30131121BF7E7F0B51C0C00D0B7
:104B200080E00CB400251C0A04D11B02160E33438E
:104B3000120208351C0B04D11B01160F334312015E
:104B400004359C0B04D19B00960F33439200023531
:104B5000DC0B02D192185B4101351C0097186441AF
:104B60000134464F7C66464C3C660E0CFFE7FFE77F
:104B7000FFE7C0463C6F6643360C7703BE4697B2EC
:104B80007743C01B00D20139C01B00D201399FB24C
:104B90007743C91BC91B170C77437E04FF0B801B8F
:104BA000B941CE086643360C0C2D33DBB644120BEC
:104BB0001F053A431B0B97B27743C01B00D2013944
:104BC0009FB27743C91B170C77433E043F0C801BF1
:104BD000B941860D8F023E43664329277F1BFE4065
:104BE0000C3D7746AF40BF1930BCA2B2ABB27243A6
:104BF0007343801A9941220C7243130C1204801AD9
:104C0000994102000B000137001BA941F9D2781E1F
:104C10000021F0BD0C277F1BFE4077467F0BAF4085
:104C2000FF19E0E700245D1C07D0144F7D6639664C
:104C3000FFE7FFE7FFE7FFE73C6F95B29EB26543F2
:104C40006643401BB141150C1E0C65436643360498
:104C50002F0C3E432D04401BB141994204D2020067
:104C60000B0020000021F0BD01D19042F7D3801A43
:104C7000994101349942F2D3F6E70000000000D0D8
:104C8000FFFFFFFF48404140484018B41B4B5B68A2
:104C9000FC46019308BD04DF6F4F001018B4174B9A
:104CA0001B68FC46019308BD00DF794F0010944655
:104CB000134A926F920809D2624618B40F4BDB6810
:104CC000FC46019308BD0CDF315200100C4AF0B5D0
:104CD000146E556E576F166F6246FFF7EEFF084A67
:104CE0001466556657671667F0BD18B4034B9B688A
:104CF000FC46019308BD08DFD5500010601F00205E
:104D0000000000D0FFB550404240504059404B4059
:104D1000594000E0FFB5154F4C00640D03D0BC4274
:104D200004D10C0314D80020090D09055C00640DA2
:104D300003D0BC4204D11C030AD800221B0D1B0562
:104D400001264B4009D44B4003D58B4200D182420F
:104D5000FFBD9942FCD19042FFBD0B43DB180343DA
:104D60001343F5D0C9434918FFBD0000FF070000F9
:104D700000B5FFF7CFFF01D0002000BD012000BD2E
:104D800000B5FFF7C7FF804100BDC04600B5FFF783
:104D9000C1FF01D9002000BD012000BD00B5FFF713
:104DA000B1FF01D9002000BD012000BD00B5FFF713
:104DB000A9FF804100BD012040054A00121804D817
:104DC0005A00121801D800207047012070470000D7
:104DD0000021002805D17047C1174840401AFAD079
:104DE000C90713B5064B1B6898470CBC441CA2406E
:104DF0001005120B0349091B09051943114310BD86
:104E0000843000201F04000010B54C00620D802388
:104E1000D218DB00D21A5B057E2A10DD9E3A13DA27
:104E2000CC170903490819435242D14064000134A8
:104E30001532202A05DAD0400843604310BD002017
:104E400010BD0846604310BDC80FC018013810BD22
:104E500018B4044B5B6AFC46019308BD24DFE153A0
:104E600000100000601F002018B4044BDB6DFC46EE
:104E7000019308BD5CDFD55400100000601F0020C6
:104E800018B4044BDB6FFC46019308BD7CDF615412
:104E900000100000601F0020132370B51D78012D45
:104EA00019D014DD1F48FFF75DFB06001E48FFF711
:104EB00059FB1E4C80223100200000F079FC022DAD
:104EC0002DD01B48FFF746FB1A4B186070BD1A4BDC
:104ED000164CA364F5E7184B144C23606360A36081
:104EE000E36023616361A361E36123626362A362A0
:104EF000E36223636363A363E36323646364A36480
:104F0000E36423656365A365E36523666366A3665F
:104F1000E36623676367A367E367A364D1E7064B90
:104F2000A364CEE75344000053460000601F0020F6
:104F30004C330000843000203D4F001007B5604620
:104F400001880A0A0230DF2AFAD1C9B2820804D3E2
:104F5000028840880004104300E00068014A505075
:104F6000039007BD601F00200FB403BC0CBCF0B55C
:104F70000124E407634000E0F0B50C0DCF0F661E7E
:104F80003605891B640503D3C943404200D3013170
:104F9000640D03D0661CF60A07D0E41B00207F00D6
:104FA000791C89078912803C24031D0DDF0F6E1EBA
:104FB00036059B1B6D0503D3DB43524200D30133FF
:104FC0006D0D03D06E1CF60A07D0ED1B00227F008A
:104FD0007B1C9B079B12803D2D032F1B661B58D407
:104FE000A446202E46DA20371400BC401D00BD40E8
:104FF000F24033412A4380185941CB0F05D0C943B1
:10500000C043002264425041514162464D0D28D1B7
:105010000D0D07D100281FD0241940414941013A04
:105020000D0DF9D0640006D3013000D30131002CFE
:1050300001D140084000013A0BD4941CE40A04D189
:1050400012051144DB071944F0BDD907204B194361
:1050500000E0D9070020F0BD0029DDD1002CDBD114
:10506000F0BD0132C6074008CD0728434908002E8D
:10507000E1D0D9E73C2E29DA203E40371400BC406D
:1050800000D00124F24014431A00BB401C43D31744
:10509000ACE7AC46202F08DA20360400B4400D00FF
:1050A000B540F84039412843A5E73C2F0CDA203FB2
:1050B00040360400B44000D00124F8400443080006
:1050C000B1400C43C117EAE710001900002494E72F
:1050D0000000F07FF0B50C0D661E3605891BE60A50
:1050E0006405640D02D0651CED0A04D00020012186
:1050F0000905803C2403A4461C0D671E3F05DB1BED
:10510000E70A6405640D02D0651CED0A04D0002294
:1051100001231B05803C24037740644497B484B288
:1051200096B27443070C7E43150C6F4380B26843FC
:10513000361802D3012000043F183004350C001942
:105140007D41844688B29AB250430C0C62431F0CD6
:105150007C438EB27E43921902D301263604A419F1
:105160001604170C3618674101BC81B29AB251433C
:10517000040C62431B0C5C4380B25843121802D3E8
:105180000120000424181004130C401863412D184A
:105190005E410020474106BC88B293B258430C0CD4
:1051A0006343120C544389B251435B1802D301216B
:1051B0000904641819041A0C091862416D18564143
:1051C0000020474118BCF902720D1143F0026A0D2C
:1051D0001043ED020A0D03D16D1940414941013BD5
:1051E000124E9B1B7600B3420ED26D0007D30130E6
:1051F000002671416646354301D1400840001B0539
:10520000C918E4072144F0BD0BDA013306D101309F
:1052100004D101314F0D01D04908F2E7E107002028
:10522000F0BD013631050020EBE70000FF03000070
:10523000F0B51C0D671E3F05DB1BE70A6405640D16
:1052400002D0661CF60A04D0002201231B05803C14
:105250002403D0252D060026F6432E661E096E6611
:10526000CE0FF619B44649004F0D02D07E1CF60A47
:1052700003D000200021403F3F033E1BB600B44452
:10528000013F7F05C91B49082E6F013676089C0235
:10529000950D25437543ED137543AD1301356D1021
:1052A000F603761B0CB4CC02450D2C43A2B2B3B26C
:1052B0005A43270C7B43350C6F43A4B26C431B1934
:1052C00002D3012424043F191C041D0CA4187D41A1
:1052D00024196D41009A91B2ACB26143170C7C4322
:1052E0002B0C5F4392B25A43A41802D3012212043A
:1052F000BF182204230C52187B41019C6C431B19DC
:10530000520ED9010A434401A01A81B2B2B25143EC
:1053100003145A43360C734387B27743D617D21916
:1053200000277E4136049B191704160C7F185E4136
:105330007316ED18F301002680337541A90F06D1CD
:105340006400690AE8055B0A184309D22FE00422C9
:10535000944480337541A90AA8059B0A184326D3B3
:10536000404149412404009A019B0D005543641BB0
:105370004343E41A95B286B27543170C7E43030C7F
:105380005F4392B25A43B61802D301221204BF18E7
:105390003204330C52197B4152429C41002C02D4FE
:1053A0000022013051414008CA071043490802B0A9
:1053B0006246D7079210084BD218084B9A4203D284
:1053C00012058918C919F0BD0020002A01DC390036
:1053D000F0BD01331905F5E7FD030000FE070000ED
:1053E000002200B5203200F004F8080000BD0000E3
:1053F00000220B150AD410B5944600F0A7F8141437
:10540000013400DA0021CB17144C20470020002182
:1054100070476244343A0CD40C2A07DA04009140F5
:10542000904052422032D440214310BDD843D9434A
:1054300010BD203207D40C46944052422032114114
:10544000D040204310BD0800C917203203D4524277
:105450002032104110BD1800190010BD1354001067
:105460004A00520D144BD21A13DDFF2A1EDAD20560
:10547000CB0FDB071A43C300400F0903490A084357
:1054800010435B0001D301D0013070474308FBD2C9
:10549000704702D0C80FC00770470A0312130132C9
:1054A000F8D1420F072AF5D1012200E0FF22C80FF0
:1054B00000028018C00570478003000000210A0028
:1054C000002104E000210A00C11704E000220023AB
:1054D00006E0C0460022CB1758405940C01A9941F7
:1054E00030B5184CA21A002903D1010010D00020B9
:1054F000203A4C1512D104D2013A001849414C0D02
:10550000FAD3114CA24204D212058918DB07C9183C
:1055100030BDD243520D00200021F5E703D4013AFB
:1055200000184941FBD50B324405C00A4D052843FC
:10553000C90A640003D0002460416141E1E7E0D37F
:105540004408F8E732040000FE0700000A0DCC0F03
:10555000531E1B05C91A520503D3C943404200D349
:105560000131520D03D0531CDB0A07D0121B00205F
:105570006400611C89078912803A1203014BD21A18
:1055800070470000FF03000051434343C9188C4695
:10559000110C83B24B4310B4040C614392B280B23D
:1055A000504362431C041B0C001910BC59411304E6
:1055B000120CC018514161447047000048404140FE
:1055C00048400E4B5B6818470C4B1B6818470C4A49
:1055D000936F9B0802D2094BDB681847F0B5146E35
:1055E000556E576F166FFFF7F6FF054A146655663E
:1055F00057671667F0BD014B9B6818476020002075
:10560000000000D0C10FC90700D54042002817D0C4
:10561000F44603B40B4B1B68984706BC81409E3888
:105620004042803107D20B0607D04900490AC00525
:105630001043084360470130F8E7490A8902F5E75B
:105640007047000084300020034BDB6FFC46184796
:105650007CDFED560010000060200020132310B501
:1056600012481C78FEF77EFF0100012C0AD003DDF2
:1056700080220F4800F09CF80E48FEF76BFF0E4B9F
:10568000186010BD0A4C5422200000F091F80B4B1A
:105690006365A365E36523666366A366E3662367C4
:1056A0006367A367E3672362E361E5E753460000AE
:1056B000602000204C33000084300020C1560010D0
:1056C00007B5604601880A0A0230DF2AFAD1C9B25A
:1056D000820804D3028840880004104300E0006878
:1056E000014A5050039007BD60200020C30FDB0724
:1056F00041000A0E07D0FF2A08D00909054A891877
:105700001943400770471900002070470249C91823
:10571000FAE70000000000380000F07F10B5040038
:1057200011F074FA002804D0034B04199C4200D8ED
:1057300010BD0248FDF72EFD0000042028F50110E1
:1057400070B505000C0011F001FA6C43002804D07C
:10575000034B04199C4200D870BD0248FDF71AFDA6
:105760000000042028F5011010B50C0011F058FDC0
:10577000002804D0034B04199C4200D810BD0248F5
:10578000FDF708FD0000042028F5011010B511F008
:1057900047FA10BD01480421014B1847201600208C
:1057A00075450010014B1B681847000020160020AB
:1057B000014B5B6818470000201600209A4200D277
:1057C000885470477047C046F8B55746DE464E4687
:1057D0004546E0B599460A9B07009A460D9B8846C8
:1057E00093460B9C9B073BD10C9B9C423DD21E1BBE
:1057F0000B9415000C005E442A004B460135210035
:105800002020B847B542F7D1A0460B9C002C20D0F1
:10581000454636195346321B013C185D29004B465C
:10582000B847002CF6D12B00350098460D9B9B07FE
:105830000FD55B46EC1A0C9BA3420AD94646984604
:105840002A004B46310020200134B8470135444539
:10585000F6D32800F0BCBB46B246A946A046F8BD28
:1058600016001500002CD3D1E0E716001500002C1F
:10587000CED1EEE7F0B54546DE4657464E46E0B59A
:1058800085B09C4610AB1B78149F934698460F9C9E
:10589000129E139DBB074CD4002D42D1B44248D276
:1058A00001233B4099460E9B013B9A46302304E07E
:1058B000524601341355A64201D9202CF8D14B464B
:1058C000002B00D183E00E9B013B99463023A5427B
:1058D00005D82EE04A4601341355AC4229D0202C7D
:1058E000F8D1FB060CD57B0554D4A64263D0A54263
:1058F00061D0119B102B50D0022B57D0202C32D1CD
:10590000202301930E9B5A4600930397634602950A
:10591000FFF75AFF05B0F0BCBB46B246A946A04609
:10592000F0BD01233B40994601233B422AD1B442BA
:10593000B9D3FB061CD57B05DBD4002CD5D1119B3C
:10594000102B5BD0119B022B6BD0302301240E9ABD
:1059500013704346002B10D17B073ED52B260E9AA1
:10596000631C1655CDE72300013430260E9AD65419
:10597000202CC5D04346002BEED02D260E9A631C5A
:105980001655BEE74346002B2FD0013DB44200D24E
:1059900089E798E7119B102BB2D1BB0637D5202C95
:1059A000AED058230E9A13550134A7E7202CA7D068
:1059B0002300013407E0631E012CC0D0119A102A85
:1059C00031D0022AD1D162260E9AD65496E7FB0630
:1059D000CED57B0500D488E78BE723003E0790D522
:1059E00020260E9A013316558BE70C233B405A1E96
:1059F0009341ED1AB44200D255E764E7BB060ED4DA
:105A000078230E9A0224137030235370A1E7202CC0
:105A100000D175E778230E9A135501346EE75823A9
:105A2000EFE76033EDE70E9AA61E91464E44BA06A4
:105A300002D55822327098E77822327095E7C04636
:105A400010B5002800D110BD01F094FDFBE7C04661
:105A50000B0010B5002802D049681B68984710BD9C
:105A6000F0B55746DE464E464546E0B595B083460E
:105A70000F00924698461E9A1F9B10001900209E08
:105A8000FFF799F9002800D0EAE11E981F9901223A
:105A9000C54B5242FFF774F9002800D014E11E985C
:105AA0001F990122C14B5242FFF780F9002800D014
:105AB000E9E01E981F990022BD4BFFF777F90028F7
:105AC00000D0C8E01E981F990022BA4BFFF758F982
:105AD000002800D0BFE01E981F9900220023FFF786
